:100000000C9456000C9460000C9460000C946000FA
:100010000C9460000C9460000C9460000C946000E0
:100020000C9460000C9460000C9460000C946000D0
:100030000C9460000C9460000C9460000C946000C0
:100040000C9460000C9460000C9460000C946000B0
:100050000C9460000C9460000C9460000C946000A0
:100060000C9460000C9460000C9460000C94600090
:100070000C9460000C9460000C9460000C94600080
:100080000C9460000C9460000C9460000C94600070
:100090000C9460000C9460000C9460000C94600060
:1000A0000C9460000C9460000C94600011241FBE3E
:1000B000CFEFDAE0DEBFCDBF0E9462000C947B017F
:1000C0000C9400002F923F924F925F926F927F921A
:1000D0008F929F92AF92BF92CF92DF92EF92FF9258
:1000E0000F931F930E940D018091C80087FFFCCFE2
:1000F0000E9438018F3F09F08DC00E9436010E9496
:100100003801482E0E943801E82E0E943801D82E6E
:100110000E943801A82E0E943801982E0E943801B2
:10012000682EFF24F694FE2CEE24F794E7945524D1
:10013000E428F52800E010E0C801B70124E030E130
:1001400040E050E00E945C011B012C01EEE056945F
:10015000479437942794EA95D1F7BB24B694BA2CE8
:10016000AA24B794A7948D2D90E0A82AB92ACC246C
:10017000DD24C601B50124E73EE040E050E00E94E6
:100180005C015B016C016EE0D694C794B794A794B0
:100190006A95D1F777247694762C662477946794C1
:1001A000892D90E0682A792A88249924C401B30112
:1001B0000E945C017B018C018EE016950795F794F7
:1001C000E7948A95D1F788EE93E0A0E0B0E0280E9E
:1001D000391E4A1E5B1E80E0B201A1010E94470148
:1001E00084EF91E0A0E0B0E0A80EB91ECA1EDB1EAD
:1001F00081E0B601A5010E94470188EE93E0A0E0EE
:10020000B0E0E80EF91E0A1F1B1F82E0B801A7012B
:100210000E9447010E94340167CFF894E1E6F0E0C4
:1002200080E8808380818083789489E190E0909356
:10023000CD008093CC0088E18093C9008EE080934C
:10024000CA008AEA809380008AE18093810010923C
:10025000820084B1806E84B98FE39CE9909387001B
:1002600080938600209A089528980895289A0895E2
:100270008091C80087FFFCCF8091CE000895982F11
:100280008091C80085FFFCCF9093CE00089588230D
:1002900029F450938B0040938A000895813029F40B
:1002A00050938900409388000895823021F4509340
:1002B0008D0040938C000895629FD001739FF001E0
:1002C000829FE00DF11D649FE00DF11D929FF00DE6
:1002D000839FF00D749FF00D659FF00D9927729F1D
:1002E000B00DE11DF91F639FB00DE11DF91FBD01A8
:0A02F000CF0111240895F894FFCF08
:00000001FF
